{
  "contractName": "EventTicketsV2",
  "abi": [
    {
      "constant": true,
      "inputs": [],
      "name": "owner",
      "outputs": [
        {
          "name": "",
          "type": "address"
        }
      ],
      "payable": false,
      "stateMutability": "view",
      "type": "function",
      "signature": "0x8da5cb5b"
    },
    {
      "constant": true,
      "inputs": [],
      "name": "idGenerator",
      "outputs": [
        {
          "name": "",
          "type": "uint256"
        }
      ],
      "payable": false,
      "stateMutability": "view",
      "type": "function",
      "signature": "0xe7bd92b9"
    },
    {
      "inputs": [],
      "payable": false,
      "stateMutability": "nonpayable",
      "type": "constructor",
      "signature": "constructor"
    },
    {
      "anonymous": false,
      "inputs": [
        {
          "indexed": false,
          "name": "desc",
          "type": "string"
        },
        {
          "indexed": false,
          "name": "url",
          "type": "string"
        },
        {
          "indexed": false,
          "name": "ticketsAvailable",
          "type": "uint256"
        },
        {
          "indexed": false,
          "name": "eventId",
          "type": "uint256"
        }
      ],
      "name": "LogEventAdded",
      "type": "event",
      "signature": "0x7d1d82c13762b51876068c852c5d404d0fa38fb615c14eebefafb60bdb4bd1b2"
    },
    {
      "anonymous": false,
      "inputs": [
        {
          "indexed": false,
          "name": "buyer",
          "type": "address"
        },
        {
          "indexed": false,
          "name": "eventId",
          "type": "uint256"
        },
        {
          "indexed": false,
          "name": "numTickets",
          "type": "uint256"
        }
      ],
      "name": "LogBuyTickets",
      "type": "event",
      "signature": "0x15827fa78fedf80f93aa72ce61e705b1362cab60ae596b1bb327076fc3856c24"
    },
    {
      "anonymous": false,
      "inputs": [
        {
          "indexed": false,
          "name": "accountRefunded",
          "type": "address"
        },
        {
          "indexed": false,
          "name": "eventId",
          "type": "uint256"
        },
        {
          "indexed": false,
          "name": "numTickets",
          "type": "uint256"
        }
      ],
      "name": "LogGetRefund",
      "type": "event",
      "signature": "0x73ebb2050cb3ee6869929e7a26925e92e201f14902e155037f1f90af931b3233"
    },
    {
      "anonymous": false,
      "inputs": [
        {
          "indexed": false,
          "name": "owner",
          "type": "address"
        },
        {
          "indexed": false,
          "name": "balance",
          "type": "uint256"
        },
        {
          "indexed": false,
          "name": "eventId",
          "type": "uint256"
        }
      ],
      "name": "LogEndSale",
      "type": "event",
      "signature": "0x6497e6dff32a753fe6b3a2b3430e5f86d65c6e35cf360d52eb3494711d7d7a1c"
    },
    {
      "constant": false,
      "inputs": [
        {
          "name": "description",
          "type": "string"
        },
        {
          "name": "website",
          "type": "string"
        },
        {
          "name": "totalTickets",
          "type": "uint256"
        }
      ],
      "name": "addEvent",
      "outputs": [
        {
          "name": "",
          "type": "uint256"
        }
      ],
      "payable": false,
      "stateMutability": "nonpayable",
      "type": "function",
      "signature": "0x4da19f20"
    },
    {
      "constant": true,
      "inputs": [
        {
          "name": "eventId",
          "type": "uint256"
        }
      ],
      "name": "readEvent",
      "outputs": [
        {
          "name": "description",
          "type": "string"
        },
        {
          "name": "website",
          "type": "string"
        },
        {
          "name": "ticketsAvailable",
          "type": "uint256"
        },
        {
          "name": "sales",
          "type": "uint256"
        },
        {
          "name": "isOpen",
          "type": "bool"
        }
      ],
      "payable": false,
      "stateMutability": "view",
      "type": "function",
      "signature": "0xe1ba30a9"
    },
    {
      "constant": false,
      "inputs": [
        {
          "name": "eventId",
          "type": "uint256"
        },
        {
          "name": "numberOfTickets",
          "type": "uint256"
        }
      ],
      "name": "buyTickets",
      "outputs": [],
      "payable": true,
      "stateMutability": "payable",
      "type": "function",
      "signature": "0x8627df46"
    },
    {
      "constant": false,
      "inputs": [
        {
          "name": "eventId",
          "type": "uint256"
        }
      ],
      "name": "getRefund",
      "outputs": [],
      "payable": false,
      "stateMutability": "nonpayable",
      "type": "function",
      "signature": "0xd2f0be99"
    },
    {
      "constant": true,
      "inputs": [
        {
          "name": "eventId",
          "type": "uint256"
        }
      ],
      "name": "getBuyerNumberTickets",
      "outputs": [
        {
          "name": "",
          "type": "uint256"
        }
      ],
      "payable": false,
      "stateMutability": "view",
      "type": "function",
      "signature": "0x3ddedd38"
    },
    {
      "constant": false,
      "inputs": [
        {
          "name": "eventId",
          "type": "uint256"
        }
      ],
      "name": "endSale",
      "outputs": [],
      "payable": false,
      "stateMutability": "nonpayable",
      "type": "function",
      "signature": "0x04d1a846"
    }
  ],
  "bytecode": "0x6080604052606460015534801561001557600080fd5b50336000806101000a81548173ffffffffffffffffffffffffffffffffffffffff021916908373ffffffffffffffffffffffffffffffffffffffff16021790555061123a806100656000396000f3fe60806040526004361061008e576000357c0100000000000000000000000000000000000000000000000000000000900463ffffffff16806304d1a846146100935780633ddedd38146100ce5780634da19f201461011d5780638627df461461029a5780638da5cb5b146102d2578063d2f0be9914610329578063e1ba30a914610364578063e7bd92b91461049d575b600080fd5b34801561009f57600080fd5b506100cc600480360360208110156100b657600080fd5b81019080803590602001909291905050506104c8565b005b3480156100da57600080fd5b50610107600480360360208110156100f157600080fd5b81019080803590602001909291905050506106b9565b6040518082815260200191505060405180910390f35b34801561012957600080fd5b506102846004803603606081101561014057600080fd5b810190808035906020019064010000000081111561015d57600080fd5b82018360208201111561016f57600080fd5b8035906020019184600183028401116401000000008311171561019157600080fd5b91908080601f016020809104026020016040519081016040528093929190818152602001838380828437600081840152601f19601f820116905080830192505050505050509192919290803590602001906401000000008111156101f457600080fd5b82018360208201111561020657600080fd5b8035906020019184600183028401116401000000008311171561022857600080fd5b91908080601f016020809104026020016040519081016040528093929190818152602001838380828437600081840152601f19601f82011690508083019250505050505050919291929080359060200190929190505050610716565b6040518082815260200191505060405180910390f35b6102d0600480360360408110156102b057600080fd5b8101908080359060200190929190803590602001909291905050506109b9565b005b3480156102de57600080fd5b506102e7610d8b565b604051808273ffffffffffffffffffffffffffffffffffffffff1673ffffffffffffffffffffffffffffffffffffffff16815260200191505060405180910390f35b34801561033557600080fd5b506103626004803603602081101561034c57600080fd5b8101908080359060200190929190505050610db0565b005b34801561037057600080fd5b5061039d6004803603602081101561038757600080fd5b8101908080359060200190929190505050610f7a565b60405180806020018060200186815260200185815260200184151515158152602001838103835288818151815260200191508051906020019080838360005b838110156103f75780820151818401526020810190506103dc565b50505050905090810190601f1680156104245780820380516001836020036101000a031916815260200191505b50838103825287818151815260200191508051906020019080838360005b8381101561045d578082015181840152602081019050610442565b50505050905090810190601f16801561048a5780820380516001836020036101000a031916815260200191505b5097505050505050505060405180910390f35b3480156104a957600080fd5b506104b2611163565b6040518082815260200191505060405180910390f35b6000809054906101000a900473ffffffffffffffffffffffffffffffffffffffff1673ffffffffffffffffffffffffffffffffffffffff163373ffffffffffffffffffffffffffffffffffffffff1614151561058c576040517f08c379a000000000000000000000000000000000000000000000000000000000815260040180806020018281038252601d8152602001807f4f6e6c7920746865206f776e657220697320617574686f72697a65642e00000081525060200191505060405180910390fd5b6000600154600360008481526020019081526020016000206003015402905060006003600084815260200190815260200160002060050160006101000a81548160ff0219169083151502179055506000809054906101000a900473ffffffffffffffffffffffffffffffffffffffff1673ffffffffffffffffffffffffffffffffffffffff166108fc829081150290604051600060405180830381858888f19350505050158015610641573d6000803e3d6000fd5b507f6497e6dff32a753fe6b3a2b3430e5f86d65c6e35cf360d52eb3494711d7d7a1c338284604051808473ffffffffffffffffffffffffffffffffffffffff1673ffffffffffffffffffffffffffffffffffffffff168152602001838152602001828152602001935050505060405180910390a15050565b60006003600083815260200190815260200160002060040160003373ffffffffffffffffffffffffffffffffffffffff1673ffffffffffffffffffffffffffffffffffffffff168152602001908152602001600020549050919050565b60008060009054906101000a900473ffffffffffffffffffffffffffffffffffffffff1673ffffffffffffffffffffffffffffffffffffffff163373ffffffffffffffffffffffffffffffffffffffff161415156107dc576040517f08c379a000000000000000000000000000000000000000000000000000000000815260040180806020018281038252601d8152602001807f4f6e6c7920746865206f776e657220697320617574686f72697a65642e00000081525060200191505060405180910390fd5b600060025490508460036000838152602001908152602001600020600001908051906020019061080d929190611169565b5083600360008381526020019081526020016000206001019080519060200190610838929190611169565b5082600360008381526020019081526020016000206002018190555060016003600083815260200190815260200160002060050160006101000a81548160ff0219169083151502179055506002600081548092919060010191905055507f7d1d82c13762b51876068c852c5d404d0fa38fb615c14eebefafb60bdb4bd1b285858584604051808060200180602001858152602001848152602001838103835287818151815260200191508051906020019080838360005b8381101561090a5780820151818401526020810190506108ef565b50505050905090810190601f1680156109375780820380516001836020036101000a031916815260200191505b50838103825286818151815260200191508051906020019080838360005b83811015610970578082015181840152602081019050610955565b50505050905090810190601f16801561099d5780820380516001836020036101000a031916815260200191505b50965050505050505060405180910390a1809150509392505050565b600060015482029050600081111515610a3a576040517f08c379a00000000000000000000000000000000000000000000000000000000081526004018080602001828103825260188152602001807f4572726f72203a20546f74616c2070726963652069732030000000000000000081525060200191505060405180910390fd5b6003600084815260200190815260200160002060050160009054906101000a900460ff161515610ad2576040517f08c379a00000000000000000000000000000000000000000000000000000000081526004018080602001828103825260188152602001807f4572726f72203a2073616c65206973206e6f74206f70656e000000000000000081525060200191505060405180910390fd5b803410151515610b70576040517f08c379a00000000000000000000000000000000000000000000000000000000081526004018080602001828103825260278152602001807f4572726f72203a206e6f7420656e6f7567682076616c756520746f207061792081526020017f7469636b6574730000000000000000000000000000000000000000000000000081525060400191505060405180910390fd5b60036000848152602001908152602001600020600301546003600085815260200190815260200160002060020154038211151515610c3c576040517f08c379a00000000000000000000000000000000000000000000000000000000081526004018080602001828103825260238152602001807f4572726f72203a206e6f7420656e6f756768207469636b65747320666f72207381526020017f616c65000000000000000000000000000000000000000000000000000000000081525060400191505060405180910390fd5b816003600085815260200190815260200160002060040160003373ffffffffffffffffffffffffffffffffffffffff1673ffffffffffffffffffffffffffffffffffffffff1681526020019081526020016000206000828254019250508190555081600360008581526020019081526020016000206003016000828254019250508190555080341115610d13573373ffffffffffffffffffffffffffffffffffffffff166108fc8234039081150290604051600060405180830381858888f19350505050158015610d11573d6000803e3d6000fd5b505b7f15827fa78fedf80f93aa72ce61e705b1362cab60ae596b1bb327076fc3856c24338484604051808473ffffffffffffffffffffffffffffffffffffffff1673ffffffffffffffffffffffffffffffffffffffff168152602001838152602001828152602001935050505060405180910390a1505050565b6000809054906101000a900473ffffffffffffffffffffffffffffffffffffffff1681565b6000610dbb826106b9565b9050600060015482029050600082111515610e3e576040517f08c379a000000000000000000000000000000000000000000000000000000000815260040180806020018281038252601c8152602001807f4572726f72203a204e6f207469636b65747320746f20726566756e640000000081525060200191505060405180910390fd5b81600360008581526020019081526020016000206003016000828254039250508190555060006003600085815260200190815260200160002060040160003373ffffffffffffffffffffffffffffffffffffffff1673ffffffffffffffffffffffffffffffffffffffff168152602001908152602001600020819055503373ffffffffffffffffffffffffffffffffffffffff166108fc829081150290604051600060405180830381858888f19350505050158015610f01573d6000803e3d6000fd5b507f73ebb2050cb3ee6869929e7a26925e92e201f14902e155037f1f90af931b3233338484604051808473ffffffffffffffffffffffffffffffffffffffff1673ffffffffffffffffffffffffffffffffffffffff168152602001838152602001828152602001935050505060405180910390a1505050565b606080600080600060036000878152602001908152602001600020600001600360008881526020019081526020016000206001016003600089815260200190815260200160002060030154600360008a81526020019081526020016000206002015403600360008a815260200190815260200160002060030154600360008b815260200190815260200160002060050160009054906101000a900460ff16848054600181600116156101000203166002900480601f0160208091040260200160405190810160405280929190818152602001828054600181600116156101000203166002900480156110ad5780601f10611082576101008083540402835291602001916110ad565b820191906000526020600020905b81548152906001019060200180831161109057829003601f168201915b50505050509450838054600181600116156101000203166002900480601f0160208091040260200160405190810160405280929190818152602001828054600181600116156101000203166002900480156111495780601f1061111e57610100808354040283529160200191611149565b820191906000526020600020905b81548152906001019060200180831161112c57829003601f168201915b505050505093509450945094509450945091939590929450565b60025481565b828054600181600116156101000203166002900490600052602060002090601f016020900481019282601f106111aa57805160ff19168380011785556111d8565b828001600101855582156111d8579182015b828111156111d75782518255916020019190600101906111bc565b5b5090506111e591906111e9565b5090565b61120b91905b808211156112075760008160009055506001016111ef565b5090565b9056fea165627a7a72305820d34302dfda0143b340f6215e45d0d2da2310688e2bc8cbca5adb1124f2e3d1e20029",
  "source": "pragma solidity ^0.5.0;\r\n\r\n    /*\r\n        The EventTicketsV2 contract keeps track of the details and ticket sales of multiple events.\r\n     */\r\ncontract EventTicketsV2 {\r\n\r\n    /*\r\n        Define an public owner variable. Set it to the creator of the contract when it is initialized.\r\n    */\r\n\r\n    address payable public owner;\r\n    uint   PRICE_TICKET = 100 wei;\r\n\r\n    /*\r\n        Create a variable to keep track of the event ID numbers.\r\n    */\r\n    uint public idGenerator;\r\n\r\n    /*\r\n        Define an Event struct, similar to the V1 of this contract.\r\n        The struct has 6 fields: description, website (URL), totalTickets, sales, buyers, and isOpen.\r\n        Choose the appropriate variable type for each field.\r\n        The \"buyers\" field should keep track of addresses and how many tickets each buyer purchases.\r\n    */\r\n      struct Event{\r\n        string  description; \r\n        string  website;  \r\n        uint totalTickets;  \r\n        uint sales; \r\n        mapping (address => uint) buyers;  \r\n        bool isOpen; \r\n        }\r\n\r\n    /*\r\n        Create a mapping to keep track of the events.\r\n        The mapping key is an integer, the value is an Event struct.\r\n        Call the mapping \"events\".\r\n    */\r\n    mapping(uint => Event) events;\r\n\r\n\r\n    event LogEventAdded(string desc, string url, uint ticketsAvailable, uint eventId);\r\n    event LogBuyTickets(address buyer, uint eventId, uint numTickets);\r\n    event LogGetRefund(address accountRefunded, uint eventId, uint numTickets);\r\n    event LogEndSale(address owner, uint balance, uint eventId);\r\n\r\n    /*\r\n        Create a modifier that throws an error if the msg.sender is not the owner.\r\n    */\r\n\r\n    modifier onlyOwner {\r\n        require(msg.sender == owner, \"Only the owner is authorized.\");\r\n        _;\r\n    }\r\n\r\n     constructor() public {\r\n        owner = msg.sender;\r\n    }\r\n\r\n    /*\r\n        Define a function called addEvent().\r\n        This function takes 3 parameters, an event description, a URL, and a number of tickets.\r\n        Only the contract owner should be able to call this function.\r\n        In the function:\r\n            - Set the description, URL and ticket number in a new event.\r\n            - set the event to open\r\n            - set an event ID\r\n            - increment the ID\r\n            - emit the appropriate event\r\n            - return the event's ID\r\n    */\r\n    function addEvent(string memory description, string memory website, uint totalTickets) onlyOwner public\r\n        returns (uint)\r\n        {\r\n            uint eventId = idGenerator;\r\n\r\n            events[eventId].description = description;\r\n            events[eventId].website = website;\r\n            events[eventId].totalTickets = totalTickets;\r\n            events[eventId].isOpen = true;\r\n\r\n            idGenerator++;\r\n\r\n            emit LogEventAdded(description, website, totalTickets, eventId);\r\n\r\n            return eventId;\r\n        }\r\n    /*\r\n        Define a function called readEvent().\r\n        This function takes one parameter, the event ID.\r\n        The function returns information about the event this order:\r\n            1. description\r\n            2. URL\r\n            3. tickets available\r\n            4. sales\r\n            5. isOpen\r\n    */\r\n    function readEvent(uint eventId) public view\r\n        returns (string memory description, string memory website, uint ticketsAvailable, uint sales, bool isOpen)\r\n    {\r\n        return(\r\n            events[eventId].description,\r\n            events[eventId].website,\r\n            events[eventId].totalTickets - events[eventId].sales,\r\n            events[eventId].sales,\r\n            events[eventId].isOpen);\r\n    }\r\n    /*\r\n        Define a function called buyTickets().\r\n        This function allows users to buy tickets for a specific event.\r\n        This function takes 2 parameters, an event ID and a number of tickets.\r\n        The function checks:\r\n            - that the event sales are open\r\n            - that the transaction value is sufficient to purchase the number of tickets\r\n            - that there are enough tickets available to complete the purchase\r\n        The function:\r\n            - increments the purchasers ticket count\r\n            - increments the ticket sale count\r\n            - refunds any surplus value sent\r\n            - emits the appropriate event\r\n    */\r\n      function buyTickets(uint eventId, uint numberOfTickets) payable public {\r\n         uint totalAmount = numberOfTickets * PRICE_TICKET;\r\n    \r\n        require(totalAmount > 0, \"Error : Total price is 0\");\r\n        require(events[eventId].isOpen, \"Error : sale is not open\");\r\n        require(msg.value >= totalAmount, \"Error : not enough value to pay tickets\");\r\n        require(numberOfTickets <= (events[eventId].totalTickets - events[eventId].sales), \"Error : not enough tickets for sale\");\r\n\r\n        events[eventId].buyers[msg.sender] += numberOfTickets;\r\n        events[eventId].sales += numberOfTickets;\r\n\r\n        if(msg.value > totalAmount) {\r\n            msg.sender.transfer(msg.value - totalAmount);\r\n        }\r\n        emit LogBuyTickets(msg.sender, eventId, numberOfTickets);\r\n    }\r\n\r\n\r\n    /*\r\n        Define a function called getRefund().\r\n        This function allows users to request a refund for a specific event.\r\n        This function takes one parameter, the event ID.\r\n        TODO:\r\n            - check that a user has purchased tickets for the event\r\n            - remove refunded tickets from the sold count\r\n            - send appropriate value to the refund requester\r\n            - emit the appropriate event\r\n    */\r\nfunction getRefund(uint eventId) public {\r\n        uint numberOfTickets = getBuyerNumberTickets(eventId);\r\n        uint totalAmount = numberOfTickets * PRICE_TICKET;\r\n\r\n        require(numberOfTickets > 0, \"Error : No tickets to refund\");\r\n\r\n        events[eventId].sales -= numberOfTickets;\r\n        events[eventId].buyers[msg.sender] = 0;\r\n\r\n        msg.sender.transfer(totalAmount);\r\n\r\n        emit LogGetRefund(msg.sender, eventId, numberOfTickets);\r\n    }\r\n    /*\r\n        Define a function called getBuyerNumberTickets()\r\n        This function takes one parameter, an event ID\r\n        This function returns a uint, the number of tickets that the msg.sender has purchased.\r\n    */\r\n     function getBuyerNumberTickets(uint eventId) view public\r\n        returns (uint)\r\n    {\r\n        return events[eventId].buyers[msg.sender];\r\n    }\r\n    /*\r\n        Define a function called endSale()\r\n        This function takes one parameter, the event ID\r\n        Only the contract owner can call this function\r\n        TODO:\r\n            - close event sales\r\n            - transfer the balance from those event sales to the contract owner\r\n            - emit the appropriate event\r\n    */\r\n      function endSale(uint eventId) onlyOwner public {\r\n        uint totalAmount = events[eventId].sales * PRICE_TICKET;\r\n        events[eventId].isOpen = false;\r\n        owner.transfer(totalAmount);\r\n\r\n        emit LogEndSale(msg.sender, totalAmount, eventId);\r\n    }\r\n}\r\n",
  "sourcePath": "E:/GitHub/event-ticket-exercise-kennethhutw/contracts/EventTicketsV2.sol",
  "compiler": {
    "name": "solc",
    "version": "0.5.0+commit.1d4f565a.Emscripten.clang"
  },
  "schemaVersion": "3.0.1",
  "updatedAt": "2019-11-17T09:28:50.483Z",
  "devdoc": {
    "methods": {}
  },
  "userdoc": {
    "methods": {}
  }
}